{
  "contractName": "Locker",
  "abi": [
    {
      "constant": true,
      "inputs": [
        {
          "name": "",
          "type": "uint256"
        }
      ],
      "name": "lockProducts",
      "outputs": [
        {
          "name": "perAnnumInterest",
          "type": "uint256"
        },
        {
          "name": "durationInSecs",
          "type": "uint256"
        },
        {
          "name": "isActive",
          "type": "bool"
        }
      ],
      "payable": false,
      "stateMutability": "view",
      "type": "function"
    },
    {
      "constant": true,
      "inputs": [
        {
          "name": "lockProductId",
          "type": "uint256"
        },
        {
          "name": "amountToLock",
          "type": "uint256"
        }
      ],
      "name": "calculateInterestForLockProduct",
      "outputs": [
        {
          "name": "",
          "type": "uint256"
        }
      ],
      "payable": false,
      "stateMutability": "view",
      "type": "function"
    },
    {
      "constant": true,
      "inputs": [
        {
          "name": "lockOwner",
          "type": "address"
        },
        {
          "name": "offset",
          "type": "uint256"
        }
      ],
      "name": "getLocksForAddress",
      "outputs": [
        {
          "name": "",
          "type": "uint256[5][20]"
        }
      ],
      "payable": false,
      "stateMutability": "view",
      "type": "function"
    },
    {
      "constant": true,
      "inputs": [],
      "name": "getLockProductCount",
      "outputs": [
        {
          "name": "",
          "type": "uint256"
        }
      ],
      "payable": false,
      "stateMutability": "view",
      "type": "function"
    },
    {
      "constant": true,
      "inputs": [],
      "name": "augmintToken",
      "outputs": [
        {
          "name": "",
          "type": "address"
        }
      ],
      "payable": false,
      "stateMutability": "view",
      "type": "function"
    },
    {
      "constant": true,
      "inputs": [],
      "name": "owner",
      "outputs": [
        {
          "name": "",
          "type": "address"
        }
      ],
      "payable": false,
      "stateMutability": "view",
      "type": "function"
    },
    {
      "constant": true,
      "inputs": [
        {
          "name": "lockOwner",
          "type": "address"
        }
      ],
      "name": "getLockCountForAddress",
      "outputs": [
        {
          "name": "",
          "type": "uint256"
        }
      ],
      "payable": false,
      "stateMutability": "view",
      "type": "function"
    },
    {
      "constant": false,
      "inputs": [
        {
          "name": "productIndex",
          "type": "uint256"
        },
        {
          "name": "isActive",
          "type": "bool"
        }
      ],
      "name": "setLockProductActiveState",
      "outputs": [],
      "payable": false,
      "stateMutability": "nonpayable",
      "type": "function"
    },
    {
      "constant": true,
      "inputs": [
        {
          "name": "",
          "type": "address"
        },
        {
          "name": "",
          "type": "uint256"
        }
      ],
      "name": "locks",
      "outputs": [
        {
          "name": "amountLocked",
          "type": "uint256"
        },
        {
          "name": "lockedUntil",
          "type": "uint256"
        },
        {
          "name": "perAnnumInterest",
          "type": "uint256"
        },
        {
          "name": "durationInSecs",
          "type": "uint256"
        },
        {
          "name": "isActive",
          "type": "bool"
        }
      ],
      "payable": false,
      "stateMutability": "view",
      "type": "function"
    },
    {
      "constant": false,
      "inputs": [
        {
          "name": "perAnnumInterest",
          "type": "uint256"
        },
        {
          "name": "durationInSecs",
          "type": "uint256"
        },
        {
          "name": "isActive",
          "type": "bool"
        }
      ],
      "name": "addLockProduct",
      "outputs": [],
      "payable": false,
      "stateMutability": "nonpayable",
      "type": "function"
    },
    {
      "constant": false,
      "inputs": [
        {
          "name": "lockOwner",
          "type": "address"
        },
        {
          "name": "lockIndex",
          "type": "uint256"
        }
      ],
      "name": "releaseFunds",
      "outputs": [],
      "payable": false,
      "stateMutability": "nonpayable",
      "type": "function"
    },
    {
      "constant": true,
      "inputs": [
        {
          "name": "offset",
          "type": "uint256"
        }
      ],
      "name": "getLockProducts",
      "outputs": [
        {
          "name": "",
          "type": "uint256[3][20]"
        }
      ],
      "payable": false,
      "stateMutability": "view",
      "type": "function"
    },
    {
      "constant": false,
      "inputs": [
        {
          "name": "newOwner",
          "type": "address"
        }
      ],
      "name": "transferOwnership",
      "outputs": [],
      "payable": false,
      "stateMutability": "nonpayable",
      "type": "function"
    },
    {
      "constant": false,
      "inputs": [
        {
          "name": "lockProductId",
          "type": "uint256"
        },
        {
          "name": "lockOwner",
          "type": "address"
        },
        {
          "name": "totalAmountLocked",
          "type": "uint256"
        }
      ],
      "name": "createLock",
      "outputs": [],
      "payable": false,
      "stateMutability": "nonpayable",
      "type": "function"
    },
    {
      "inputs": [
        {
          "name": "augmintTokenAddress",
          "type": "address"
        }
      ],
      "payable": false,
      "stateMutability": "nonpayable",
      "type": "constructor"
    },
    {
      "anonymous": false,
      "inputs": [
        {
          "indexed": true,
          "name": "oldOwner",
          "type": "address"
        },
        {
          "indexed": true,
          "name": "newOwner",
          "type": "address"
        }
      ],
      "name": "NewOwner",
      "type": "event"
    }
  ],
  "bytecode": "0x6060604052341561000f57600080fd5b6040516020806112a583398101604052808051906020019091905050600073ffffffffffffffffffffffffffffffffffffffff166000809054906101000a900473ffffffffffffffffffffffffffffffffffffffff1673ffffffffffffffffffffffffffffffffffffffff1614151561008757600080fd5b336000806101000a81548173ffffffffffffffffffffffffffffffffffffffff021916908373ffffffffffffffffffffffffffffffffffffffff16021790555080600160006101000a81548173ffffffffffffffffffffffffffffffffffffffff021916908373ffffffffffffffffffffffffffffffffffffffff1602179055505061118d806101186000396000f3006060604052600436106100d0576000357c0100000000000000000000000000000000000000000000000000000000900463ffffffff16806314f6c8da146100d557806326eda0381461011e57806344fcbd791461015e5780634de16053146101ff5780637b9b9c89146102285780638da5cb5b1461027d57806390f549ba146102d2578063a22f302e1461031f578063b425f8021461034d578063c225f18d146103c3578063d6e982e5146103fa578063e18a91341461043c578063f2fde38b146104be578063f551de6c146104f7575b600080fd5b34156100e057600080fd5b6100f66004808035906020019091905050610542565b6040518084815260200183815260200182151515158152602001935050505060405180910390f35b341561012957600080fd5b6101486004808035906020019091908035906020019091905050610588565b6040518082815260200191505060405180910390f35b341561016957600080fd5b61019e600480803573ffffffffffffffffffffffffffffffffffffffff16906020019091908035906020019091905050610602565b604051808260146000925b818410156101ef5782846020020151600560200280838360005b838110156101de5780820151818401526020810190506101c3565b5050505090500192600101926101a9565b9250505091505060405180910390f35b341561020a57600080fd5b610212610732565b6040518082815260200191505060405180910390f35b341561023357600080fd5b61023b61073f565b604051808273ffffffffffffffffffffffffffffffffffffffff1673ffffffffffffffffffffffffffffffffffffffff16815260200191505060405180910390f35b341561028857600080fd5b610290610765565b604051808273ffffffffffffffffffffffffffffffffffffffff1673ffffffffffffffffffffffffffffffffffffffff16815260200191505060405180910390f35b34156102dd57600080fd5b610309600480803573ffffffffffffffffffffffffffffffffffffffff1690602001909190505061078a565b6040518082815260200191505060405180910390f35b341561032a57600080fd5b61034b600480803590602001909190803515159060200190919050506107d6565b005b341561035857600080fd5b61038d600480803573ffffffffffffffffffffffffffffffffffffffff16906020019091908035906020019091905050610880565b60405180868152602001858152602001848152602001838152602001821515151581526020019550505050505060405180910390f35b34156103ce57600080fd5b6103f8600480803590602001909190803590602001909190803515159060200190919050506108df565b005b341561040557600080fd5b61043a600480803573ffffffffffffffffffffffffffffffffffffffff169060200190919080359060200190919050506109bd565b005b341561044757600080fd5b61045d6004808035906020019091905050610b7f565b604051808260146000925b818410156104ae5782846020020151600360200280838360005b8381101561049d578082015181840152602081019050610482565b505050509050019260010192610468565b9250505091505060405180910390f35b34156104c957600080fd5b6104f5600480803573ffffffffffffffffffffffffffffffffffffffff16906020019091905050610c58565b005b341561050257600080fd5b610540600480803590602001909190803573ffffffffffffffffffffffffffffffffffffffff16906020019091908035906020019091905050610dad565b005b60028181548110151561055157fe5b90600052602060002090600302016000915090508060000154908060010154908060020160009054906101000a900460ff16905083565b600080600060028581548110151561059c57fe5b906000526020600020906003020191508160020160009054906101000a900460ff1615156105c957600080fd5b6105f5620f42406105e7846000015487610f4790919063ffffffff16565b610f7d90919063ffffffff16565b9050809250505092915050565b61060a610fb9565b6000610614610fb9565b600080600360008873ffffffffffffffffffffffffffffffffffffffff1673ffffffffffffffffffffffffffffffffffffffff1681526020019081526020016000209350600091505b60148260ff1610156107255783805490508260ff16870110151561068057610725565b838260ff16870181548110151561069357fe5b9060005260206000209060050201905060a060405190810160405280826000015481526020018260010154815260200182600201548152602001826003015481526020018260040160009054906101000a900460ff166106f45760006106f7565b60015b60ff16815250838360ff16880160148110151561071057fe5b6020020181905250818060010192505061065d565b8294505050505092915050565b6000600280549050905090565b600160009054906101000a900473ffffffffffffffffffffffffffffffffffffffff1681565b6000809054906101000a900473ffffffffffffffffffffffffffffffffffffffff1681565b6000600360008373ffffffffffffffffffffffffffffffffffffffff1673ffffffffffffffffffffffffffffffffffffffff168152602001908152602001600020805490509050919050565b6000809054906101000a900473ffffffffffffffffffffffffffffffffffffffff1673ffffffffffffffffffffffffffffffffffffffff163373ffffffffffffffffffffffffffffffffffffffff1614151561083157600080fd5b6002805490508210151561084457600080fd5b8060028381548110151561085457fe5b906000526020600020906003020160020160006101000a81548160ff0219169083151502179055505050565b60036020528160005260406000208181548110151561089b57fe5b9060005260206000209060050201600091509150508060000154908060010154908060020154908060030154908060040160009054906101000a900460ff16905085565b6000809054906101000a900473ffffffffffffffffffffffffffffffffffffffff1673ffffffffffffffffffffffffffffffffffffffff163373ffffffffffffffffffffffffffffffffffffffff1614151561093a57600080fd5b6002805480600101828161094e9190610fe8565b916000526020600020906003020160006060604051908101604052808781526020018681526020018515158152509091909150600082015181600001556020820151816001015560408201518160020160006101000a81548160ff021916908315150217905550505050505050565b6000600360008473ffffffffffffffffffffffffffffffffffffffff1673ffffffffffffffffffffffffffffffffffffffff16815260200190815260200160002082815481101515610a0b57fe5b906000526020600020906005020190508060040160009054906101000a900460ff168015610a3d575080600101544210155b1515610a4857600080fd5b60008160040160006101000a81548160ff021916908315150217905550600160009054906101000a900473ffffffffffffffffffffffffffffffffffffffff1673ffffffffffffffffffffffffffffffffffffffff1663ab1f03278483600001546040518363ffffffff167c0100000000000000000000000000000000000000000000000000000000028152600401808373ffffffffffffffffffffffffffffffffffffffff1673ffffffffffffffffffffffffffffffffffffffff16815260200182815260200180602001828103825260198152602001807f52656c656173696e672066756e64732066726f6d206c6f636b000000000000008152506020019350505050600060405180830381600087803b1515610b6657600080fd5b6102c65a03f11515610b7757600080fd5b505050505050565b610b8761101a565b610b8f61101a565b600080600091505b60148260ff161015610c4d576002805490508260ff168601101515610bbb57610c4d565b60028260ff168601815481101515610bcf57fe5b9060005260206000209060030201905060606040519081016040528082600001548152602001826001015481526020018260020160009054906101000a900460ff16610c1c576000610c1f565b60015b60ff16815250838360ff168701601481101515610c3857fe5b60200201819052508180600101925050610b97565b829350505050919050565b6000809054906101000a900473ffffffffffffffffffffffffffffffffffffffff1673ffffffffffffffffffffffffffffffffffffffff163373ffffffffffffffffffffffffffffffffffffffff16141515610cb357600080fd5b600073ffffffffffffffffffffffffffffffffffffffff168173ffffffffffffffffffffffffffffffffffffffff1614151515610cef57600080fd5b8073ffffffffffffffffffffffffffffffffffffffff166000809054906101000a900473ffffffffffffffffffffffffffffffffffffffff1673ffffffffffffffffffffffffffffffffffffffff167f70aea8d848e8a90fb7661b227dc522eb6395c3dac71b63cb59edd5c9899b236460405160405180910390a3806000806101000a81548173ffffffffffffffffffffffffffffffffffffffff021916908373ffffffffffffffffffffffffffffffffffffffff16021790555050565b6000600160009054906101000a900473ffffffffffffffffffffffffffffffffffffffff1673ffffffffffffffffffffffffffffffffffffffff163373ffffffffffffffffffffffffffffffffffffffff16141515610e0b57600080fd5b600284815481101515610e1a57fe5b906000526020600020906003020190508060020160009054906101000a900460ff161515610e4757600080fd5b600360008473ffffffffffffffffffffffffffffffffffffffff1673ffffffffffffffffffffffffffffffffffffffff1681526020019081526020016000208054806001018281610e989190611049565b9160005260206000209060050201600060a060405190810160405280868152602001610ed1866001015442610f9890919063ffffffff16565b815260200185600001548152602001856001015481526020016001151581525090919091506000820151816000015560208201518160010155604082015181600201556060820151816003015560808201518160040160006101000a81548160ff02191690831515021790555050505050505050565b60008082840290506000841480610f685750828482811515610f6557fe5b04145b1515610f7357600080fd5b8091505092915050565b6000808284811515610f8b57fe5b0490508091505092915050565b6000808284019050838110151515610faf57600080fd5b8091505092915050565b610c80604051908101604052806014905b610fd261107b565b815260200190600190039081610fca5790505090565b8154818355818115116110155760030281600302836000526020600020918201910161101491906110a3565b5b505050565b610780604051908101604052806014905b6110336110e6565b81526020019060019003908161102b5790505090565b81548183558181151161107657600502816005028360005260206000209182019101611075919061110e565b5b505050565b60a0604051908101604052806005905b600081526020019060019003908161108b5790505090565b6110e391905b808211156110df5760008082016000905560018201600090556002820160006101000a81549060ff0219169055506003016110a9565b5090565b90565b6060604051908101604052806003905b60008152602001906001900390816110f65790505090565b61115e91905b8082111561115a576000808201600090556001820160009055600282016000905560038201600090556004820160006101000a81549060ff021916905550600501611114565b5090565b905600a165627a7a72305820d822e17b208d5c533d67e63afbbe14b916e38685e05b2c6fde64703273b920630029",
  "source": "\n// contract for tracking locked funds etc.\n\n// requirements\n// -> lock funds\n// -> unlock funds\n// -> index locks by address\n\n// to do/think about:\n// -> self-destruct function?\n// -> return only active loan products from getLoanProducts?\n// -> add events\n// -> need to update token contract? probably not? a new token contract would imply a fresh deployment?\n// -> test locking small (<10) amounts - need a min lock amount in lockProducts\n\npragma solidity 0.4.18;\n\nimport \"./generic/Owned.sol\";\nimport \"./generic/SafeMath.sol\";\nimport \"./interfaces/AugmintTokenInterface.sol\";\n\n\ncontract Locker is Owned {\n\n    using SafeMath for uint256;\n\n    struct LockProduct {\n        // perAnnumInterest is in millionths (i.e. 1,000,000 = 100%):\n        uint perAnnumInterest;\n        uint durationInSecs;\n        bool isActive;\n    }\n\n    struct Lock {\n        uint amountLocked;\n        uint lockedUntil;\n        uint perAnnumInterest;\n        uint durationInSecs;\n        bool isActive;\n    }\n\n    AugmintTokenInterface public augmintToken;\n\n    LockProduct[] public lockProducts;\n    // per account locks:\n    mapping(address => Lock[]) public locks;\n\n    function Locker(address augmintTokenAddress) public {\n\n        augmintToken = AugmintTokenInterface(augmintTokenAddress);\n\n    }\n\n    function addLockProduct(uint perAnnumInterest, uint durationInSecs, bool isActive) public onlyOwner {\n\n        lockProducts.push(LockProduct(perAnnumInterest, durationInSecs, isActive));\n\n    }\n\n    function setLockProductActiveState(uint productIndex, bool isActive) public onlyOwner {\n\n        require(productIndex < lockProducts.length);\n        lockProducts[productIndex].isActive = isActive;\n\n    }\n\n    function getLockProductCount() public view returns (uint) {\n\n        return lockProducts.length;\n\n    }\n\n    // returns 20 lock products starting from some offset\n    // lock products are encoded as [ perAnnumInterest, durationInSecs, isActive ]\n    function getLockProducts(uint offset) public view returns (uint[3][20]) {\n\n        uint[3][20] memory response;\n\n        for (uint8 i = 0; i < 20; i++) {\n\n            if (offset + i >= lockProducts.length) { break; }\n\n            LockProduct storage lockProduct = lockProducts[offset + i];\n\n            response[offset + i] = [ lockProduct.perAnnumInterest, lockProduct.durationInSecs,\n                lockProduct.isActive ? 1 : 0 ];\n\n        }\n\n        return response;\n\n    }\n\n    // the flow for locking tokens is:\n    // 1) user calls token contract to lock tokens\n    // 2) token contract calls calculateInterestForLockProduct to get interestEarned\n    // 3) token contract transfers tokens from user and interestEarnedPool to Locker\n    // 4) token contract calls createLock\n    //\n    // helper for lockable tokens\n    function calculateInterestForLockProduct(uint lockProductId, uint amountToLock) external view returns (uint) {\n\n        LockProduct storage lockProduct = lockProducts[lockProductId];\n        require(lockProduct.isActive);\n\n        // TODO: take care of per annum issue:\n        uint interestEarned = amountToLock.mul(lockProduct.perAnnumInterest).div(1000000);\n\n        return interestEarned;\n\n    }\n\n    // NB: totalAmountLocked includes both the lock amount AND the interest\n    function createLock(uint lockProductId, address lockOwner, uint totalAmountLocked) external {\n\n        // only the token can call this:\n        require(msg.sender == address(augmintToken));\n\n        LockProduct storage lockProduct = lockProducts[lockProductId];\n        require(lockProduct.isActive);\n\n        locks[lockOwner].push(Lock(totalAmountLocked, now.add(lockProduct.durationInSecs), lockProduct.perAnnumInterest, \n                                    lockProduct.durationInSecs, true));\n\n    }\n\n    function releaseFunds(address lockOwner, uint lockIndex) external {\n        Lock storage lock = locks[lockOwner][lockIndex];\n        require(lock.isActive && now >= lock.lockedUntil);\n        lock.isActive = false;\n        augmintToken.transferNoFee(lockOwner, lock.amountLocked, \"Releasing funds from lock\");\n    }\n\n    function getLockCountForAddress(address lockOwner) public view returns (uint) {\n\n        return locks[lockOwner].length;\n\n    }\n\n    // returns 20 locks starting from some offset\n    // lock products are encoded as [ amountLocked, lockedUntil, perAnnumInterest, durationInSecs, isActive ]\n    // NB: perAnnumInterest is in millionths (i.e. 1,000,000 = 100%):\n    function getLocksForAddress(address lockOwner, uint offset) public view returns (uint[5][20]) {\n\n        Lock[] storage locksForAddress = locks[lockOwner];\n        uint[5][20] memory response;\n\n        for (uint8 i = 0; i < 20; i++) {\n\n            if (offset + i >= locksForAddress.length) { break; }\n\n            Lock storage lock = locksForAddress[offset + i];\n\n            response[offset + i] = [ lock.amountLocked, lock.lockedUntil, lock.perAnnumInterest, \n                                        lock.durationInSecs, lock.isActive ? 1 : 0 ];\n\n        }\n\n        return response;\n\n    }\n\n}\n",
  "sourcePath": "/Users/petro/ether/dcm-poc/contracts/Locker.sol",
  "compiler": {
    "name": "solc",
    "version": "0.4.18+commit.9cf6e910.Emscripten.clang"
  },
  "schemaVersion": "1.0.1",
  "updatedAt": "2018-01-14T21:37:36.394Z"
}